:020000022000DC
:1060000000000120756302005D6302005F6302000F
:106010006163020063630200656302000000000028
:1060200000000000000000000000000067630200A4
:1060300069630200000000006B6302006D630200F0
:10604000719A02006F63020065A402006F63020090
:106050006F63020089A20200359D02006F63020097
:106060006F6302006F6302006F6302006F630200E0
:106070006F63020075A502006F6302006F63020088
:106080006F630200B17402006F6302006F6302006D
:106090006F6302006F63020041FE02006F63020043
:1060A0006F6302006F6302006F63020005A70200C6
:1060B0006F6302006F630200000000000000000038
:1060C0006F6302006F6302006F6302006F63020080
:1060D0006F6302006F6302006F6302000000000044
:1060E00000000000000000000000000000000000B0
:1060F00000000000000000000000000000000000A0
:10610000000000000000000000000000000000008F
:10611000000000000000000000000000000000007F
:10612000000000000000000000000000000000006F
:10613000000000000000000000000000000000005F
:10614000000000000000000000000000000000004F
:10615000000000000000000000000000000000003F
:10616000000000000000000000000000000000002F
:10617000000000000000000000000000000000001F
:10618000000000000000000000000000000000000F
:1061900000000000000000000000000000000000FF
:1061A00000000000000000000000000000000000EF
:1061B00000000000000000000000000000000000DF
:1061C00000000000000000000000000000000000CF
:1061D00000000000000000000000000000000000BF
:1061E00000000000000000000000000000000000AF
:1061F000000000000000000000000000000000009F
:10620000354936480A1A02D0072291438D4634494F
:1062100034480A1A06D00722914381F309880222E2
:1062200082F3148830483149314A00F044F831484B
:106230003149324A00F03FF831483249324A00F0E1
:106240003AF832483249334A00F035F83248334997
:10625000334A00F030F833483349344A00F02BF821
:1062600033483449344A00F026F83448344900228F
:1062700000F02CF833483449002200F027F8334866
:106280003349091A082902DB002202604160314AC1
:1062900090471F481F49884205D00268043003B464
:1062A000904703BCF7E700208646EC46002000211B
:1062B000294A9047FEE7884207D0521A05D0037852
:1062C00001300B700131013AF9D17047884202D098
:1062D00002700130FAE770470000012000E0002062
:1062E0000000012000000120A4400300EC2A00204F
:1062F000682B0020D0630200D063020084040300F6
:10630000A4400300EC2A0020EC2A00202006030011
:1063100020060300200603002006030020060300D9
:10632000200603002006030020060300A24003000D
:1063300020410300682B0020682B0020682B0020E0
:106340004C4900204C4900204C4900204C49002079
:106350004C6900209D630200D9CE0200FEE7FEE7F3
:10636000FEE7FEE7FEE7FEE7FEE7FEE7FEE7FEE705
:1063700000F002B8FFF7FCBF0F484FF00701884359
:1063800085460E4880470E48016841F4700101605F
:10639000BFF34F8FBFF36F8FFFF732BF09480A4932
:1063A0000A4A884207D0521A05D0037801300B7090
:1063B0000131013AF9D1704700000120FDD50200FA
:1063C00088ED00E00C060300D82A0020EC2A00200B
:1063D000022004F0FBBF00002DE9F04780460D4687
:1063E00005F014F80328044610D8012D10D0022D12
:1063F00030D05DB91A4800F018FE1A4B04EB440285
:1064000013449D78184B1B5DAB4219D0BDE8F08753
:10641000144E00EB4003F218F55C5378470053B17B
:10642000DFF84C900E484A464FF4804100F0E5FDFD
:1064300008B989F8008027443E440B4BB2781A55BE
:10644000002DE3D0094B1B68002BDFD02846BDE8A8
:10645000F047184700EB4004024804446578EFE732
:10646000902B0020D02B0020E92B0020E42B0020D3
:10647000682B002000780221FFF7AEBF08B5094B5A
:106480001B7853B1002004F077FF012004F074FF63
:10649000BDE80840032004F06FBFBDE8084004F0E9
:1064A00077BF00BF692B0020F8B57A4C23780546EA
:1064B0001BB100232370FFF7E1FF172D00F2878047
:1064C000DFE805F00C1717425364757F878C878CC3
:1064D000949999999999C3C8D0D8E3E3FFF7CEFF6F
:1064E0006D4800F0A2FD6D4B002204461A70204654
:1064F000F8BD002004F026FFF0B1002004F03CFFBE
:10650000022D0CBF4FF4E1644FF47A64634B1D70AD
:1065100000254FF400464FF47A7029464FF4FA6292
:106520000023E4FB060109F003FE2A460146BDE80C
:10653000F840594800F061BD04F012FF022D0CBF75
:10654000C8244FF4C874E1E7002004F0FBFE40B11A
:10655000002004F011FF4FF44874504B03221A70CE
:10656000D6E704F0FDFEC824F7E7002004F0EAFEB9
:1065700038B1002004F000FF4FF47A64474B042246
:10658000EDE704F0EDFE4FF4C874F7E7002004F0E7
:10659000D9FE48B1002004F0EFFE404B05221A70EE
:1065A00040F6CD410022C2E704F0DAFEF5E7002014
:1065B00004F00CFF394B06221A70002240F266618B
:1065C000B5E7002004F0CCFE344B07221A700024FB
:1065D0008DE70120207004F0F9FEEEE70120207025
:1065E00004F0F4FE00224FF40051A0E704F0DFFEB7
:1065F0002A4B0C22EAE72A482A4E00F016FDD5F174
:10660000110504461CD0D8B9012D13D0C82045432C
:1066100021464FF400474FF47A704FF4FA6200239A
:10662000C5FB070109F084FD224601461C4800F025
:10663000E4FC0446022004F093FE0123337056E785
:10664000022004F099FE0023F8E7FFF717FF134B31
:106650001222BBE7FFF712FF002004F081FE0F4B70
:106660001322B3E7FFF70AFF012004F079FE0B4B7A
:106670001422ABE7FFF702FF002004F071FE0120B7
:1066800004F06EFE054B1522A0E704F090FE034BCC
:106690001D709CE7E02B0020B02B0020E82B002091
:1066A000702B0020692B0020044B1B68DB0703D5EF
:1066B000034B1878FFF7F8BE704700BFDC2B0020B3
:1066C000E82B002010B5002914BF0324002404F097
:1066D000AFFE800000F1A040D0F8002722F4403245
:1066E000C0F80027D0F8003743EA0443C0F8003769
:1066F000002010BD032801D804F07ABE00207047A6
:10670000044B1B6813F0010301D0FFF7CDBE184600
:10671000704700BFDC2B002038B51C4B18601C4BA9
:1067200010F00204054619601AD01A4B1A480E22BE
:106730001A700F22DA7010229A7111225A720421F3
:1067400040F2333200F036FA044648B900F08AFAD3
:10675000044628B90146114A114800F043FC04469A
:10676000EB0711D5012004F069FE6CB921460D4AF2
:106770000D4800F037FC044630B9BDE838400B4AFC
:106780000B48012100F02EBC204638BDDC2B002038
:10679000E42B0020D02B00202006030075640200AB
:1067A00044060300A966020048060300D163020004
:1067B00040060300032811D8012A0AD101290FD16C
:1067C00000F10E02D2B20D4B00EB40001A54002033
:1067D00070470129F7D0022904D049B1072070473A
:1067E0000022F8E7054B00EB400018444270EEE74A
:1067F000024B00EB400018448270E8E7D02B0020E9
:10680000032802D80121FFF75DBF0620704708B5B5
:10681000012202210020FFF7CDFF08B1072810D187
:10682000072202210120FFF7C5FF08B1072808D180
:1068300000210A220846FFF7BDFF10B1072808BF54
:10684000002008BD0388102B10B502D0112B1ED0DC
:1068500010BD1A4C2168B1B901220846FFF7AAFF02
:1068600008B1072824D1072202210120FFF7A2FF47
:1068700008B107281CD1042202210020FFF79AFF4B
:1068800008B1072814D1236801332360E0E70B4ADD
:106890001368013B1360002BDAD1FFF7B8FF002823
:1068A000D6D0074B1B68002BD2D0BDE8104018474C
:1068B000034B1B68002BE6D09847E4E7F42B00203D
:1068C000F02B002008B50020FFF79AFF08B106283A
:1068D00006D10120FFF794FF10B1062808BF002061
:1068E00008BD00000D4B10B518600C4629B1012001
:1068F000FFF700FF40B102232370094B1B6853B917
:10690000BDE81040FFF783BFFFF7F4FE08B10B238B
:10691000F2E72070F1E7002010BD00BFF02B00204F
:10692000F42B002006F0DAB80021084606F08AB8F9
:1069300010F1360F0AD060B148F2165348F21152E6
:1069400010F1380F08BF13461846704748F2145329
:10695000FAE70346F8E708B50846114602F0A4FF37
:10696000002008BD30B5044685B0002002F01EFFAF
:10697000054678B9201D039005F0D0FF064903981D
:1069800000952B462A4606F01EF805B0BDE83040BB
:10699000FFF7CEBF05B030BD5769020008B504301F
:1069A00005F0C1FF02F02EFF002008BDC30710B59F
:1069B00007D4F023054A4008145C234019431154BE
:1069C00010BD0901C9B20F23F4E700BF282C002035
:1069D00030B5094B1C78094B196800239C4202DC36
:1069E0000022104630BD11F83350854201EBC3023E
:1069F000F7D00133F2E700BFF82B0020382C00203D
:106A000013B504460191FFF7E3FF38B143682BB19A
:106A10000199204602B0BDE81040184702B010BDF1
:106A2000034B044819680022490800F0E6BA00BF89
:106A3000FC2B0020002C002010B5C0B2FFF7C8FFCF
:106A40000446007803F06CF963785A1E53425341B0
:106A5000834208D1044BD3E90023134303D1BDE89B
:106A60001040FFF7DDBF10BD202C002037B54308D4
:106A7000374AD35CC2074CBF1B0903F00F0304461F
:106A80000D46042B25D8DFE803F003262F3C4000F9
:106A9000F9B10121FFF78AFF00230DF107008DF8FE
:106AA000073000F097FB0120A4F12003C4F120017E
:106AB000284A20FA01F100FA03F30B43A040D2E97F
:106AC000004120430B43C2E900039DF8070000F09A
:106AD000A5FB03B030BD002918BF0221204603B03A
:106AE000BDE83040FFF762BF49B10321FFF75EFF09
:106AF0000121204603B0BDE83040FFF781BF0121EE
:106B0000ECE70029E5D10421E8E709B10321E5E735
:106B1000FFF74CFF29462046FFF772FF0DF10700F3
:106B20008DF8075000F056FB0120A4F12003C4F1BA
:106B30002001084A20FA01F100FA03F30B43A040B8
:106B4000D2E9004124EA000021EA0303BBE700BFC9
:106B5000282C0020202C00202DE9F041124E134F4C
:106B600000243378A34208DC114BD3E900231343FC
:106B700018D0BDE8F041FFF753BF3D6805EBC408EE
:106B800015F8340003F0CCF898F801305A1E53423F
:106B90005341181A4142414115F83400FFF766FF8E
:106BA0000134DEE7BDE8F081F82B0020382C00200E
:106BB000202C0020092AF7B505460C4616463ED97A
:106BC00002F0E6FFE8B11F4B1F481D601F4B204F2E
:106BD0001C70204B002110221E6009F0CEFB1E4BC2
:106BE00000200021C3E90001013CE4B20326FF2C90
:106BF0000DD11A4A1A48002103B0BDE8F04000F058
:106C0000F1B902F087FF0028DDD003B0F0BD9DF898
:106C1000063015F834008DF8046005EBC40223F04B
:106C200007038DF8063001A993788DF805303A46B0
:106C300002F0B8FF013CE4B20028D8D0E5E7072015
:106C4000E3E700BF382C0020282C0020F82B002080
:106C5000396A0200FC2B0020202C0020596B020016
:106C60005806030070B5084D084E00242B789C424E
:106C700001D3002070BD3368012113F8340003F004
:106C800009F80134F2E700BFF82B0020382C00206F
:106C90001FB50021039001AA44F20100CDE90111C2
:106CA00000F004F805B05DF804FB000038B572B6DA
:106CB00004F020FF04F08EFD0028FBD1104B114C96
:106CC000114D1249E41AE408240444F0010004F0D0
:106CD000CBFED5F8F030DB0700D500BE0C4944F000
:106CE000020004F0C1FEBFF34F8FEA68094B02F4C3
:106CF000E0621343EB60BFF34F8F00BFFDE700BFBF
:106D0000340503007405030000ED00E05C06030099
:106D1000680603000400FA054B1C30B5DB0004468E
:106D200012F003009BB20DD1074D2A601A44074BA5
:106D30001A60074B1870074B1870074B1C80074BE5
:106D4000198030BD0720FCE7442C0020402C002097
:106D50003C2C00204C2C0020482C00204A2C0020E9
:106D60002DE9F347DFF8C080B8F800308B420646C3
:106D70000D4617464CD300240DF107008DF807404F
:106D800000F028FA244B254A25481B78008892F801
:106D900000C084455FFA8CF138BF4C1CDBB238BFB1
:106DA000E4B2A3422ED014781178CBB2884286BFC9
:106DB0000133DBB2002313709DF8070000F02EFAB8
:106DC0004FF6FF739C4225D0DFF86090D9F8002081
:106DD0004FEAC40A42F8347002EBC403AEB1A5B165
:106DE000104BB8F800001B682A4604FB00303146FF
:106DF00009F09AFAD9F80030534400209D8002B07F
:106E0000BDE8F0874FF6FF74D6E700209880F6E7DC
:106E10000920F4E70420F2E74C2C00203C2C002051
:106E20004A2C0020402C0020482C0020442C00201C
:106E300070B5104C104D22782B789A4200D170BD5D
:106E40000E480F4A2378126806880E4802EBC301E9
:106E5000006852F83320898803FB060090470A49EE
:106E600022780988D3B2914286BF0133DBB2002376
:106E70002370E0E74C2C00203C2C0020482C002004
:106E8000442C0020402C00204A2C002010B5D0E9D2
:106E90000243D1E90202A04272EB03032CBF01209E
:106EA000002010BD08B50A4800F0EBFA094AD2E903
:106EB0000031C018084BD3E9002341F10001904292
:106EC00071EB030303D210F1807041F1000108BDA2
:106ED000EC2A0020582C0020D02C002037B5054685
:106EE0000C460A4801A901F0BFF960B10570446081
:106EF00001A9064801F0E2F918B1054800F0C6FA08
:106F0000002003B030BD0420FBE700BFBC2C0020F4
:106F1000EC2A002038B5184B1B78044613B900251D
:106F2000284638BD0028FAD0037F03F0FF05002B68
:106F3000F5D0FFF7B7FFD4E90223904271EB0303CA
:106F400014D3236903B92377D4E90530984721691D
:106F50000029E4D0237F03F0FF05002BDFD0D4E924
:106F600002325B1842F10002C4E9023203482146B2
:106F700002F03EF9D4E700BF602C00208406030035
:106F800013B5114B11491868019008231048582275
:106F900001F035F9044698B90E4A0F4801A900F0EE
:106FA00061F9044660B90C48012100F04DFA012353
:106FB0000A4A0948194600F0AFF9094B01221A7034
:106FC000204602B010BD00BF80060300642C0020E4
:106FD000BC2C002045700200EC2A0020FFFF7F003F
:106FE000602C00203AB103685A614A1E5142514157
:106FF0001961002070470720704738B5037F0446A9
:107000000D4683B98261FFF74DFF2369281841F1CE
:107010000001C4E9020103B1256121460020BDE859
:107020003840FFF75BBF002038BD002301460377DF
:107030000120FFF753BF0000014800F022BA00BF53
:10704000EC2A00202DE9F347064600F005FA40B18E
:10705000584AD2E9003113F1807341F10001C2E9CD
:1070600000310021304600F006FA38B1524C236856
:1070700023B12068FFF74EFF002323600121304633
:1070800000F0F9F920B1FFF70DFF4C4BC3E9000107
:107090004B48494D4B4C4C4F01A901F01FF90028BA
:1070A00042D1DFF82081444CDFF82491404602F0C1
:1070B000B5F82368002872D07BB12368D0E902526A
:1070C000D3E902138D4272EB03032AD223681B7F9C
:1070D0001BB12168404602F08BF8404602F098F858
:1070E000D0E9027A0546FFF7DDFE381A6AEB010A9D
:1070F00001287AF1000345DBB0F5350F40D3FFF7E7
:107100009BFF324A02444FF496030021484600F0A8
:1071100023F900283ED1236813B9304600F0F4F873
:10712000256002B0BDE8F0870378012B1DD0022B4B
:1071300009D14FF00008204602F06AF8002836D046
:1071400080F81C80F7E73BB941680B7F23B9012326
:107150000B77204602F04CF801A9194801F0E9F834
:1071600001A9174801F0BAF899E741682B689942DC
:1071700002D100232B60EFE7204602F052F8EBE744
:10718000AA68C0E70021484600F06BF92846FFF7DF
:10719000C1FE01E00D28F9D00023236086E7002B13
:1071A000BFD1304602B0BDE8F04700F0B1B80123CE
:1071B0003B70D1E7582C0020D82C0020D02C002088
:1071C000BC2C002084060300602C0020FFFFB400CC
:1071D000EC2A002070B5EFF3108672B60C4A946862
:1071E00001239CB993600B4B0B4DD3F880102940C1
:1071F0001160C3F88050D3F8841051604FF0FF3213
:10720000C3F88420047006B962B670BD0370FAE753
:10721000DC2C002000E100E0FC06FFBD084B9A6872
:1072200010B55AB150B9EFF3108172B6054A1C6817
:1072300014605C685460986001B962B610BD00BF0C
:10724000DC2C002000E100E0435882B03BB1002379
:10725000435043580193019B012002B070471846E8
:10726000FBE70000F8B5204B4479204E43F824207A
:107270001F4A204B06EBC4049B1A2279DB081B042F
:1072800032B143F002001C4904F0EEFB0820F8BDC7
:1072900002680C88C2F8084590F904508A7804798D
:1072A0005201002DD2B219DB14494F1987F800237F
:1072B00001226D0904F01F0402FA04F441F825408C
:1072C000427906EBC201012446F832000C7143F00A
:1072D00003000B4904F0C8FB0020D8E7094904F07B
:1072E0000F040A55ECE700BFF02C0020E82C00202A
:1072F00034050300840503009006030000E100E06C
:10730000B206030014ED00E0036801221A60704722
:10731000036801225A60704773B501F15005AD0052
:107320000068ADB24FF480348C400026C0F80843AA
:10733000C0F84843465101F5A8714559019522F01E
:107340007F42019D40F82120C0F844430BB1C0F8B2
:10735000044302B070BD00002DE9F74F0D4622F046
:107360007F4402684FF4803705F150068F40804615
:10737000B60002EB8500C2F84873B6B2C2F80873D3
:10738000D2F8041599464FF0000BD0F84035C0F8FC
:10739000401542F806B05B1A9259009223F07F43E1
:1073A000012B009A4FEA850A0CD1264B4FF48060DE
:1073B00043F001039847D8F8003043F806B09B59D2
:1073C0000193019BD8F80010D1F80465C1F844730B
:1073D000A31B23F07F43012B1CD11A4B05F5A87585
:1073E000013443F0010341F825404FF48060984791
:1073F000D8F80030D3F804359E4209D1D8F80030CF
:107400000020C3F84473C3F8047303B0BDE8F08FE1
:107410000D20FAE78A44C9F1FF13CAF84045D1F8B4
:107420000405221A013A22F07F4203F57F4393427A
:10743000EED3002AE2D10134CAF84045D1F8043530
:107440009842DAE7D006030003680222C3F8442317
:1074500009B1C3F80423704700684FF48271FFF745
:10746000F3BE4FF4803303FA01F10368C3F8481305
:10747000C3F80813704750318900006889B2FFF7DC
:10748000E3BE0368D3F804057047000090F90430A8
:10749000002B09DB5A09012103F01F0301FA03F352
:1074A0004032024941F82230704700BF00E100E05D
:1074B000024B034A1B681068184700BFF02C0020DD
:1074C000E82C002070B5064D0646002455F8043B14
:1074D0000BB1304698470134042CF7D170BD00BF82
:1074E000002D00204388033300EB830399420BD324
:1074F00082884FF6FF739A4208D0038833B18068C0
:10750000431C584258417047022070470120704781
:10751000033080B240F2FE33984230B51FD8134B8F
:107520001A783AB91C895D892C440444A4B2B4F594
:10753000806F0AD91A7DAAB99A8BDC8B2244024447
:1075400092B2B2F5806F0DD801220A80144614223F
:1075500002FB04335A8910445881002030BD48F2A0
:107560000860FBE748F20660F8E700BF342D002012
:107570000B4A0C495388142000FB0311CB6833B924
:107580000420496810700122074801F05BBA0749DE
:107590000523137002238B80012209680023F3E77F
:1075A000182D0020342D0020D82A0020FC2D00208A
:1075B00007B5002305490093054A096805480823D3
:1075C00001F0A6F903B05DF804FB00BFFC2D00201C
:1075D000E4060300D82A002007B5002301460093E3
:1075E000034A0448082301F093F903B05DF804FB53
:1075F000DC060300D82A002013B500230C460093B4
:107600000146084A0848042301F082F938B9074BBB
:10761000142101FB043101230B7402B010BD48F2A8
:107620000D60FAE7D8060300D82A0020342D002088
:1076300037B50A480A4B42689C8819685388032565
:10764000033305709BB2002000909B0001EB840186
:10765000044801F05DF903B030BD00BF182D0020D3
:10766000FC2D0020D82A002010B50146044800F067
:10767000FBFD1C220446002108F07FFE204610BDC1
:10768000E82D002068B10268084B9A4209D1406891
:10769000074B984207D00133984214BF03200120C2
:1076A0007047032070470020704700BFDEC0ADDE8A
:1076B000FE011EF12DE9F0410D460223154F2B80EE
:1076C000164600F5805100F108044FF001088C4285
:1076D0000ED2236801330BD02046FFF703FF48B1D9
:1076E0000EB186F80080022809D14FF480632B8008
:1076F000BDE8F081A3683A68934200D93B602B88CB
:107700006288033313442B806388033304EB8304C0
:10771000DDE700BF2C2D002038B5144B14220D4698
:1077200002FB00302B68446804F58051A3B15C88EB
:10773000033403EB84048C4215D22368013312D046
:107740002046FFF7CFFE012808D002280BD00028E2
:10775000F1D12C60012038BD0834ECE76388033395
:1077600004EB8304E7E70020F5E700BF342D002099
:10777000426873B504460D466AB3234BD9688A4202
:1077800029D31B699A4226D812F0030323D11F493B
:107790000089098988421ED12068916888421AD1DF
:1077A0001B4841688A4203D901F580518A420DD3B2
:1077B00081698A420CD901F580518A4208D201229E
:1077C0002A80B3FA83F0400902B070BD1A46F7E789
:1077D00048F20963F5E700262E800196288801A962
:1077E000FFF79AFF30B92B8801339BB2012B2B8016
:1077F000F3D9E9E7019B226899689142EED1636071
:10780000024B1B892381DFE7D82A0020182D002096
:10781000342D00202DE9F8431C461D4B1B780646ED
:107820000F46154673B382B37CB3DFF86C804FF01C
:107830001409A388012B02D948F2096020E009FB52
:1078400003F318F803302BB9A0882146FFF764FF33
:1078500020B92060A3880133A380EAE723681EB122
:10786000998832889142EFD11FB119883A889142A4
:10787000EAD19A68C5E90023064B1B892B810020B9
:10788000BDE8F88348F20160FAE748F20460F7E7E0
:10789000102D0020182D0020342D002008B5074B96
:1078A0005888191DFFF738FF18B1BDE80840FFF7E9
:1078B000BFBEBDE80840FFF75BBE00BF182D00202B
:1078C0002DE9F047A24FDFF8AC8288B006463B684E
:1078D00023B9A048414600F001FD38603D68297891
:1078E0004B1E052B07D8DFE813F020007A007A0042
:1078F0000C010C01640148F20E641422002103A85B
:1079000008F03BFD41F61D539C4208BF00243B6834
:1079100004941A78023A042A00F20282DFE812F094
:10792000E301EF011102190220022EB18A4B00225D
:107930005A604FF40644E0E72B79032B1CD8DFE8AC
:1079400003F014022A35854A1378022B1AD0137DCE
:10795000022B4FF0010317D114214B43D118002003
:10796000D0544868FFF738FE03E001232B71FFF77E
:107970001FFE002800F0BF80774B00225A6048F2BB
:107980000D64BAE70023E7E7734A137000235360DE
:1079900041F61D54B1E772497248002302222B714F
:1079A0008A800968012201F04DF8E2E76C4C00265C
:1079B0002E712068FFF710FE6B4BDFF8A0C15B88CB
:1079C0002568142253430CEB03020CF80360516842
:1079D0005560A588158102222160A280C9E7B5F80B
:1079E00014A0AA7DDFF87491AEB1022AEB8806D903
:1079F000142101FB0A91DA1C088902440A8114222D
:107A000002FB0A99C3F57F43B9F80A20FD331344FA
:107A1000A9F80A308DE7142303FB0A9318895C68E0
:107A200004EB8004062A69D8DFE802F0274E3644CA
:107A30001D5A040041F61D54AA7DEB88022A06D97E
:107A4000142101FB0A91DA1C088902440A811422DC
:107A500002FB0A99C3F57F43B9F80A20FD331344AA
:107A6000A9F80A3049E74148414900234360AB691E
:107A70000360FFF77DFE00285BD00223AB75002377
:107A800000930423EA182146364800F041FF0028FD
:107A900031D048F20D64CFE72B69002B14BF0323CC
:107AA0000123AB750023009305F10C02042304F1BC
:107AB0000801E9E70123AB750022EB8800922A69EF
:107AC0009B0004F10C01DFE703290CBF052306230B
:107AD000AB7500230093042305F10802E118D3E7F6
:107AE0000623AB75224B1988204B5868FFF784FD9D
:107AF00004460028A0D108B0BDE8F08748F20E6423
:107B00009AE7002E7FF415AF2B79012B34D0022B8E
:107B10003FF43EAF002B7FF4EEAE02232B710DF14C
:107B20000A01EB68039303A8CDE90466FFF720FE82
:107B300010B948F20964E0E60498BDF80A10838899
:107B4000EB8003882B81FFF757FD044627E000BF39
:107B5000302D0020E82D0020102D0020342D002095
:107B6000FC2D0020D82A0020182D0020F42C002005
:107B7000082E0020282D00207B4B03AA3146A81D8B
:107B8000FFF748FE784B044668B999880498FFF7D8
:107B900033FD044648F209639C423FF4F9AE002CE1
:107BA0007FF4ABAEA7E708223146184608F0E5FBA4
:107BB000F0E7002E7FF4BDAE6C4B1A7BB2B11E73A2
:107BC0001A78013A062A3FF696AE01A151F822F042
:107BD0007B7C0200A17C0200BF7C0200C57C02000D
:107BE000F7780200CB7C0200DD7C02001A78072ABD
:107BF000E6D801A151F822F0197C0200C17B0200F5
:107C0000C17B02003F7C0200537C0200777C0200B3
:107C1000777C02003B7C02001A89554901321A81A7
:107C200000225A801A730A78B2FA82F252099A72C2
:107C30000A7DB2FA82F25209DA72012207E04D4956
:107C400058688A884088033202448A8002221A7067
:107C5000B6E75C88464A4749142505FB04220868B4
:107C6000546850608888108102200C608880002150
:107C700011740622EBE70722E9E79A7A32B9DA7A39
:107C80008AB900221A705A805A6081E63849002267
:107C90009A72CA68002AF2D1097C0029EFD05A8072
:107CA000FFF7FCFD51E70022DA72314A116A002920
:107CB000E7D192F82420002AE3D00122EFE7FFF772
:107CC000B7FC42E7FFF754FC3FE75A88284B1421E2
:107CD00001FB02335868FFF77FFC36E700225A6049
:107CE000FFF766FC31E701228DF80C201A89ADF808
:107CF00018209A88DB68ADF81A20059310E002225C
:107D00008DF80C201A89ADF818209A88ADF81A2041
:107D1000DA689B7D05929A1F534253418DF81C30BF
:107D200003A8FFF7CFFB0026414613483E6000F052
:107D300000FB1248012100F07BFB00287FF4C7AD57
:107D4000D9E603228DF80C20DA88ADF818201A89BC
:107D5000D0E704228DF80C20DB88ADF81830DFE77F
:107D600005238DF80C30DBE70C2E0020182D0020A9
:107D7000342D0020FC2D0020E82D0020F82D0020BF
:107D80004068FFF79DBD000008B50548012100F0DF
:107D900037FB18B9BDE80840FFF792BD08BD00BF2A
:107DA000F82D00202DE9F3419846374B1B78064605
:107DB0000D46002B5CD000295DD009884FF6FF737B
:107DC00099425BD06B88002B58D06B689B0758D1C9
:107DD0004AB92F890DF102013846FFF799FB30B1FE
:107DE00002B0BDE8F08113885788ADF8023001A8D1
:107DF000FFF73AFC044660B9BDF80220234B14217A
:107E000001FB023358890338C01B588148F20760D0
:107E1000E6E780F8008000238375BDF80230838296
:107E20006B68036101211A4800F0F6FA2B88238160
:107E3000B8F1030F6B88A38004BF0423A3754FF030
:107E4000000508BF3368E06008BFA3611148E78000
:107E5000658101A900F032FA36B1E36833600E4B58
:107E600075601B89B5723381FFF78EFF0020B7E77D
:107E700048F20160B4E748F20460B1E748F20360F9
:107E8000AEE748F20260ABE7102D0020342D002051
:107E90002C2D0020E82D0020182D002008B50346C9
:107EA00007480268042A08D00168064A42F82130CF
:107EB000012100F0B1FA002008BD48F20B60FBE799
:107EC000042E0020002D00202DE9F04F89B014224F
:107ED000002103A808F051FA7A4B1B7803F0FF0B3E
:107EE0003BB103A8FFF7EEFA0027384609B0BDE81A
:107EF000F08F744B181D00F0A7FA0028F4D1DBF8BE
:107F0000F83FDFF8E0A15C1C08BF4FF010234FF0F2
:107F1000805208BF5B6911695269581C08BF02FB97
:107F200001F3CAF810306849A3F5405300225046C7
:107F3000CAF80C3000F0BAFC07460028D5D11C2343
:107F400062496348DFF8A0918C2200F058F90323BE
:107F5000B8463D4601933C46DAF80C60464430464C
:107F6000FFF790FB012862D0032817D000283DD1ED
:107F700058494FF0140C0CFB04FC01EB0C0201F807
:107F80000C0056600CF110020CF1080C0A4430464B
:107F90006144FFF78FFB45F0020545E03268531C52
:107FA00002D04D4B9A4234D1321D06F580511068F3
:107FB00001302ED104329142F9D1D9F800203AB9DA
:107FC0000222C9F80060A9F804204FF0010B0BE071
:107FD000142262433F4B0220991898543F4A4E6046
:107FE000548001340881A4B245F0010508F5805899
:107FF000B8F5405FB0D1019B012B98BF0025EDB2D1
:10800000022D03D0062D32D0002D39D148F20A6757
:108010006BE7019B2F495A1E93B2142262438818C2
:1080200001934660032088540134A4B2DEE7BBF11B
:10803000000F0DD0274B1422624399180220985448
:10804000D9F800204A60254A088154800134A4B23E
:1080500000222349C9F800603046FFF72BFBB9F82E
:108060000420022A0CBF042208221543BEE7154A49
:108070000123137003A800235360FFF723FA34E7AA
:1080800002A8FFF7F1FAC8B10123013D03700A2DE0
:1080900009D8DFE805F006080608070807080F11E9
:1080A0000F000023037102A9094800F007F9FFF748
:1080B0006BFE1AE70323F5E70223F3E748F20767AD
:1080C00013E700BF102D0020A00D03005C2D002041
:1080D000E82D0020342D0020DEC0ADDE182D00205C
:1080E000002E0020D82A0020FC2D002073B50D465C
:1080F0000446C8B1C1B10DF10601FFF739FBB0B1BB
:10810000BDF806300B486668142202FB030001210B
:108110000C3000F081F963682E600C336B60012332
:10812000A372002002B070BD48F20460FAE748F282
:108130000960F7E7342D002013B50446A8B10DF10E
:108140000601FFF715FB98B1BDF806200B4B142173
:1081500001FB0233DA6872B1A27A62B1DA680020F8
:10816000013ADA60A07202B010BD48F20460FAE78A
:1081700048F20960F7E748F20560F4E7342D002083
:1081800002230022FFF70EBE18B103230022FFF7DF
:1081900009BE48F2046070470F4B1B7807B5A3B1C6
:1081A00001A8FFF761FA98B10623037001A90B48F3
:1081B00000F084F80A4B1A780AB101221A73FFF70B
:1081C000E3FD002003B05DF804FB48F20160F9E72D
:1081D00048F20760F6E700BF102D0020E82D0020D0
:1081E000182D002007B5ADF80600ADF804100DF10C
:1081F000060001A9FFF70EFB03B05DF804FB10B504
:1082000061B1B2FBF3F403FB1424A4B244B9C0E996
:10821000001484608281C381204610BD0E20FCE7DB
:108220000920FAE782B050E8022FC188B2EB324F42
:108230004FF0000317BF92B241EA014142EA014107
:1082400004E04268B2EB324F08BF012340E802125B
:10825000002AE8D18DF807309DF80730002B0CBFBD
:108260001120002002B0704737B550E8013F9DB2A1
:10827000C48925448489A54228BF2D1B0489A542B1
:1082800002BFBFF32F8F002207E0C5EA030540E8D5
:108290000154002CE9D14FF001028DF80320019325
:1082A000019A0A609DF8031001F0FF0321B10068F4
:1082B00010FA82F003B030BD1846FBE70A884B88FD
:1082C0009A4209D150E8012FC2EA024240E8012354
:1082D000002BF7D1012070470020704737B550E8D8
:1082E000023F1FFAA3F5C488A54202BFBFF32F8F38
:1082F00000220DE0C48925448489A54228BF2D1B96
:10830000C3EA054540E80254002CE8D14FF00102D1
:108310008DF803200193019A0A609DF8031001F083
:10832000FF0321B1006800EB124003B030BD1846D6
:10833000FBE70A884B889A4209D150E8022FC2EA2B
:10834000224240E80223002BF7D101207047002091
:10835000704701F01F024B090121914000EB83009F
:1083600000F02AB801F01F0301229A404B0900EBEC
:108370008300D14300F038B84B0901F01F0150F8D9
:108380002300C84000F00100704710B5034653E8D1
:10839000000F0A4643E8002494F0000FF7D110BD07
:1083A00010B5034653E8000F40EA010243E80024F9
:1083B00094F0000FF6D110BD10B5034653E8002F1E
:1083C00042EA010043E8000494F0000FF6D110BD2A
:1083D00010B5034653E8000F00EA010243E8002409
:1083E00094F0000FF6D110BD10B5034653E8002FEE
:1083F00002EA010043E8000494F0000FF6D110BD3A
:1084000010B5034653E8000F00EB010243E80024D7
:1084100094F0000FF6D110BD10B5034653E8002FBD
:1084200002EB010043E8000494F0000FF6D110BD08
:1084300010B5034653E8002FA2EB010043E8000407
:1084400094F0000FF6D110BD0121FFF7A9BF012163
:10845000FFF7B2BF0021FFF7BBBF10B590B1D0E965
:10846000012301689B1ADBB20A60013BDBB2FF2BE0
:10847000026802D10020107110BD11684C1C1460FC
:108480000B70F2E70E20F7E737B5054600240DF133
:1084900007008DF80740FEF79DFE2A686B6811689B
:1084A00099420ED9481E106011F8013CEC68298AE7
:1084B00001FB0344AB6811791B1ADBB2994238BF48
:1084C00013719DF80700FEF7A9FE204603B030BDEA
:1084D00037B5054600230DF107000C468DF807302F
:1084E000FEF778FE2A681368591C1160E968641A5F
:1084F000298AB4FBF1F41C709DF80700FEF78EFE8C
:1085000003B030BD826810B504462AB143690168E2
:10851000006998470023A36010BD0EB403B503990A
:1085200021B104AB01AA019300F076F802B05DF826
:1085300004EB03B070470A2938B504460D4602D152
:108540000D21FFF7F8FFA3682268591CA160D554DC
:10855000D4E901329A4204D32046BDE83840FFF7FF
:10856000D1BF38BD2DE9F84F9846DDE90A431546DD
:1085700082460F460A464FF00109AA420FD2C14572
:1085800038BFC14613F0010B01D16CB9002401269C
:10859000B8F1010F1BD908F1FF386E43F8E709F174
:1085A0000109B2FBF5F2E8E79B070ED5B8F1000F21
:1085B0000CBF30262026A145E9D2013C3146504669
:1085C000FFF7B9FF002CF6D1E0E72026F3E7B7FB71
:1085D000F6F39D42E1D9DFF83C80B7FBF6F3504655
:1085E00018F8031006FB1377FFF7A5FF3346AB42DD
:1085F000B6FBF5F6F1D2BBF1000F02D00CB1A145EC
:1086000001D3BDE8F88F20215046013CFFF793FFCE
:10861000F4E700BFB50B03002DE9F74F05461746F9
:108620008846002900F03E8118F8011B49B92B7BD0
:10863000002B00F03781284603B0BDE8F04FFFF76C
:1086400061BF252940F0B780002698F800302D2B17
:10865000424608F1010823D0302B24D02B2B25D003
:1086600000242A2B02F1010123D13B681A1D1B684B
:108670003A601C440A4613782E2B26D101324FF063
:10868000000A104610F8011BA1F1300CBCF1090FD3
:108690001DD80A2303FB0A13A3F1300A0246F0E7B0
:1086A00046F00106D1E746F00206CEE746F00406A2
:1086B000CBE711F8013CA3F130000928DBD80A22EE
:1086C00002FB0434303C0A46CBE74FF0000A12F8B4
:1086D000011B01F0FB0068289046F8D0782909D8E2
:1086E0006F290CD8632962D022D8252963D0582954
:1086F00000F0888098F80030002B95D197E770390A
:108700000829F7D801A353F821F000BF7F880200A1
:10871000F5860200F586020015880200F586020043
:10872000F3870200F5860200F58602000588020044
:10873000642901D06929DDD13A68D2F80090111D71
:1087400089EAE9723960A2EBE9724FF0010B092A5C
:1087500035DCD34538BFD3462CB1B9F1000F01DB6E
:10876000720700D5013CB30702D5BAF1000F03D060
:10877000F00701D44CBB0024B9F1000F2DDAC9F188
:1087800000092D212846FFF7D6FE06F00302022A33
:1087900004D1BAF1000F01D11CBB0024CDE9004681
:1087A00053460A2249462846FFF7DCFEA2E73B680B
:1087B0001A1D19783A602846FFF7BDFE9AE70A238A
:1087C0000BF1010BB2FBF3F2C1E7A345D4D2202198
:1087D0002846013CFFF7AFFECCE77107D5D52B212A
:1087E000D0E7A345DAD230212846013CFFF7A3FEAB
:1087F000D2E73968CDE900460A1D3A6053460A229D
:108800000968D0E739680A1D3A60CDE90046534649
:108810001022F5E73B681A1D3A6016F00106D3F8FE
:10882000009024D1B9F1000F03D0484607F0FAFDBB
:108830000646B4421DD809F1FF3919F8011F002975
:108840003FF458AF2846FFF776FEF6E72846013694
:10885000FFF771FE19F806100029F7D1A642BFF400
:1088600049AF20212846013CFFF765FEF6E70026C8
:10887000F0E720212846013CFFF75DFED9E73B6881
:108880001A1D3A60302128461C68FFF754FE7821F3
:108890002846FFF750FE00220823CDE9003221468A
:1088A000102280E703B0BDE8F08F00BF13B50B4680
:1088B000114680B9104B1148114AC01A0E23C00846
:1088C0000093104B0004104940F0010003F0E3F85E
:1088D0000E2002B010BD4BB9074B08480B4AC01A16
:1088E000C0080E2300930004064BECE703601B68EE
:1088F00002B0BDE81040184734050300BC05030072
:10890000C50B0300810D0300CA0B0300F90B030024
:108910002DE9F743DDF8288088B93E4B3E483F4AB1
:10892000C01AC0080E243E4B009400043D4940F09C
:10893000010003F0B0F8204603B0BDE8F0834AB967
:10894000344B3548384AC01AC0080E24344B0094C2
:108950000004EBE7D0F800E0BEF1000F09D12D4B89
:108960002D48324AC01AC00808242D4B0094000438
:10897000DCE74BB9274B28482D4AC01AC008092408
:10898000274B00940004D1E74568D5F80490B3FB69
:10899000F9F509FB15354DB11E4B1F48254AC01A84
:1089A000C00809241E4B00940004BFE78D0709D0BE
:1089B000184B1948204AC01AC0081024184B0094BC
:1089C0000004B3E712F0030F09D0124B12481B4A00
:1089D000C01AC0081024124B00940004A6E7C56812
:1089E000A9420DD34D1EEC180569AC4208D8CDF84C
:1089F0002880DEF80C40A44603B0BDE8F043604791
:108A0000044B05480E4AC01AC0081024044B0094B9
:108A100000048BE734050300BC050300C50B03000D
:108A20006E0D0300CA0B0300470C0300F30B030099
:108A3000060C03004D0C0300770C03008F0C0300A1
:108A4000B20C0300F7B580B92A4B2B482B4AC01A49
:108A5000C0080E242A4B009400042A4940F001006B
:108A600003F019F8204603B0F0BDD0F800C0BCF107
:108A7000000F09D11F4B2048234AC01AC008082400
:108A80001F4B00940004E8E74AB91A4B1A481F4AE2
:108A9000C01AC00809241A4B00940004DDE7456899
:108AA000D5F800E00EF1FF350D4209D0114B124808
:108AB000174AC01AC0081024114B00940004CCE7D8
:108AC000C568A9420CD34D1E0EFB02540569AC4289
:108AD00006D8DCF81040A44603B0BDE8F04060477B
:108AE000044B05480B4AC01AC0081024044B0094DC
:108AF0000004B2E734050300BC050300C50B030006
:108B00005B0D0300CA0B0300F30B0300060C03000C
:108B1000D90C0300FF0C030029DF704728DF7047E2
:108B200070B503689E6886B004460D466EB1142287
:108B30000021684607F021FCA3680593237901957D
:108B40002BB1012B0DD06846B04706B070BD012394
:108B50008DF8003023690293E368039363690493FB
:108B6000F1E702238DF80030E3681B030293F5E779
:108B70000846704700207047024B187A003818BF2B
:108B800001207047B02E0020034B187A0122B0FA62
:108B900080F05A7440097047B02E002008B5104686
:108BA0001A4607F0C1FB002008BD000008B51422DA
:108BB0000021044807F0E1FB0348FFF733FB0020E6
:108BC00008BD00BFB02E0020A02E002010B5094C1B
:108BD000094B43602046FFF737FC40B907F016F910
:108BE000064920741C2306488C22FFF708FB00204E
:108BF00010BD00BFB02E0020940D0300142E0020E5
:108C0000A02E002038B5234D234C2B7A3BB92349A5
:108C10002348FFF763FB206008B9686038BD022372
:108C200024682B72237973B1012B24D020460321B1
:108C3000FFF776FF00232B726B6018491848BDE8D8
:108C40003840FFF776BBD4E90523D21AB2F5805F2E
:108C5000D4E9031028BF4FF480529208012A38BF8C
:108C6000012219441844FFF757FF50B11128DDD1F4
:108C700001232B72D2E7D4E903031844FFF74EFF18
:108C8000F3E72B7C002BC9D1BDE83840022000F06F
:108C900009B800BFB02E0020C82E0020C42E00202E
:108CA000A02E002038B5234C237A002B41D0022B74
:108CB00009D1032830D0204B00221B68E2601A79CA
:108CC0003AB1012A22D0637C7BBBBDE83840FFF774
:108CD00099BFD3E905128D1AB5F5805F94BF52197B
:108CE00002F580529A619142EDD102284FF00003C3
:108CF00008BF19462372104B18BF0D211868FFF7E3
:108D00000FFF0E490E48FFF714FBDCE71A6901322A
:108D10001A615B699A42E7E7E3680133082B01D8DF
:108D2000E360D0E70023E360DFE7BDE8384007F009
:108D30005DB838BDB02E0020C82E0020C42E002003
:108D4000A02E0020831E012B01D8FFF7ABBF704778
:108D500000F0FD03012B08D1044B00225A74421E7F
:108D6000504250411874FFF74DBF7047B02E00209D
:108D700010B5064C201DFFF767FB28B9637C1BB9B3
:108D8000BDE81040FFF73EBF10BD00BFB02E002071
:108D90002DE9F34180460D460F4801A916461F46AE
:108DA000FFF762FA0446A8B11C22002107F0E5FA99
:108DB0002D0B0123237101A90748C4F80080A76087
:108DC000E5606661FFF77AFAFFF7D2FF002002B094
:108DD000BDE8F0810420FAE7A02E00202DE9F7433A
:108DE00081468846104801A917461E46FFF73CFAFF
:108DF0000446B0B11C22002107F0BFFA00250A9BEF
:108E0000A36001A9C4E9037807482571C4F800905C
:108E10006661FFF753FAFFF7ABFF284603B0BDE8E2
:108E2000F0830420FAE700BFA02E00202DE9F84FC0
:108E3000B0F806A04579D2F800B09DF828900AFB5A
:108E400005F5043D88460BEB0301A94203F1040438
:108E500088BFA5EB030BB4FBFAF607460AFB1644E2
:108E6000C2F800B04EB9AAEB04055D4528BF5D46C7
:108E7000BBF1000F04D1BDE8F88F3F68013EF1E778
:108E8000043408EB06003C442A46B9F1000F0DD02B
:108E90002146ABEB050B07F047FADA452E443F6855
:108EA00055464FF0000428BF5D46E1E701462046E5
:108EB000EFE7FFF7D2BAF8B546790146721E0546CC
:108EC000002393422D6803D30024A64202D8F8BDA4
:108ED0000133F6E70F682846FFF7FAFA01343946FE
:108EE000F3E72DE9F843068ACD1C0746FFF7CCFAD5
:108EF000043E35440446B5FBF6F5F0B14FF48073FB
:108F0000EDB28380C680013D076081464FF00008C6
:108F1000A84512D23846FFF7B7FA064648B163793A
:108F20000133637108F10108C9F800000760814648
:108F3000EEE72046FFF7BFFF34462046BDE8F88342
:108F400001210430FFF768BA10B50121044604304E
:108F5000FFF76EFAC0B220B92046BDE81040FFF717
:108F6000AABF10BD1FB503920022009203AAFFF70B
:108F70005DFF05B05DF804FB1FB50392012200926E
:108F800003AAFFF753FF05B05DF804FB41DF70470C
:108F9000064B10B500241C70054B1C60BFF35F8F9F
:108FA0000449054800F00EF9204610BDD42E0020DB
:108FB000D82E0020CC0D0300CC2E002007B50023B6
:108FC0000DF107008DF80730FEF704F9F1EE103AC5
:108FD00023F09F03E1EE103ABFF35F8F0A4B40226C
:108FE000C3F884219DF80700FEF718F906F00EFF7C
:108FF00020B103B05DF804EBFFF7C8BF20BF40BF4E
:1090000020BF03B05DF804FB00E100E002681368D4
:109010005268934291BFD01A80680130801888BF8F
:10902000C01A704703682DE9F0411F681E68154695
:109030005A68964286BF83680133961B8846C26889
:10904000416888BF9E1BB542044607FB02110CD83D
:109050006A43404607F068F9A3683D449D4288BFD3
:10906000002523681D60BDE8F08106FB02F73A4643
:10907000404607F059F9E2686168AD1B6A4308EBA6
:10908000070007F051F9ECE7036881681A685B682C
:109090008B4234BF01330023D31A584258417047E2
:1090A00073B5002304460DF107000D468DF8073017
:1090B000FEF790F82046FFF7E7FF10B1237C002B66
:1090C0003BD12368A1685E685A688A4234BF013286
:1090D00000225A6028B11A688A4234BF0132002245
:1090E0001A60E2686368511E072920D8DFE801F0A2
:1090F00004101F141F1F1F182A789A552046FFF7C7
:1091000085FF23689A68824200D29860002415E0A7
:109110002A8823F81620F1E72A6843F82620EDE78D
:10912000D5E9000103EBC603C3E90001E6E72946E0
:1091300002FB063007F0F8F8E0E704249DF807008A
:10914000FEF76CF8204602B070BD7FB50546019170
:109150001446AAB10DF10F0000268DF80F60FEF73E
:1091600039F82846FFF752FFA04201990BD3224657
:109170002846FFF757FF34469DF80F00FEF74EF8DC
:10918000204604B070BD0524F6E737B50446002537
:109190000DF107008DF80750FEF71CF80C22294648
:1091A000206807F0EAF89DF80700FEF737F803B0EB
:1091B00030BD836800225A60C3E904229A60DA60F5
:1091C0001A6070470B684A684360934208BF0023E7
:1091D000016008BF43607047436843B1026891680B
:1091E00052680B449342436004BF002343607047BE
:1091F00070B5446806460D46206818B1B368294624
:10920000984718B923682B60256070BD2468F3E780
:109210004368186808B102681A60704743681868A4
:1092200070474368186800B97047884203D10268E4
:109230001A600120704703460068F4E710B50D4935
:10924000A1F59472914201D800200FE08C1AE30F2F
:1092500003EBE4035B1002EBC30452F833308342A8
:1092600005D802D204F10802ECE7606810BD21467F
:10927000E8E700BFD812030008B5FFF7DFFF024B95
:10928000002808BF184608BD9B1103000648074A7E
:1092900003780749D35C012213B1043001F094BE76
:1092A0000C3001F057BC00BFF42A0020782F0020BA
:1092B000042F00200648074A03780749D35C01229F
:1092C00013B1043001F032BE0C3001F0F3BB00BF2B
:1092D000F42A0020782F0020052F002037B50578CC
:1092E000012D0DD0022D30D075B91F491F4800F057
:1092F000FCF8002834D103B0BDE83040FFF7DABFF6
:10930000037A1BB9FFF7C2FF03B030BD4368184CA6
:109310001978204600F0D7F880B18DF80050019000
:10932000144B68461B689847A168E368A2885B1ADB
:109330009A42E7D2104B01221A70E5E7A268E3686F
:109340009A42F1D08DF80000EAE7C3688DF800502A
:109350000193FFF79BFF074B68461B689847D3E7CD
:1093600003238DF80030F6E7052F0020F42E0020AF
:10937000E02E0020DC2E0020F02E0020F0B51F464D
:10938000234B89B004461A600D4600293DD08A88D7
:109390002048096800F088F8002834D1AA89A96813
:1093A0001D4800F081F800282DD11C4E0FCE6D46CF
:1093B0000FC596E80F0085E80F0063690693237CCC
:1093C000174A18488DF81C70003B18BF01238DF810
:1093D0001430637C002B14BF0E2300238DF815304E
:1093E000E3680293A3680393236801936946636863
:1093F000009300F0A1FA30B90B4B187023680133C9
:1094000001D0FFF743FF09B0F0BD0720FBE700BF25
:10941000DC2E0020E02E0020F42E0020D8120300C5
:10942000DD920200F42A0020F02E002070B5084DD5
:10943000014608482E7800F058F8044636B100235B
:109440002B70FFF723FF08B1FDF722FC204670BD0B
:10945000F02E0020E02E002010B501460E4800F04E
:1094600032F80446A8B90D480D4A0378D35C63B1BD
:10947000043001F04FFD60B90A49074800F035F8A3
:1094800038B9BDE81040FFF715BF0C3001F006FBFE
:10949000F1E7204610BD00BFF42E0020F42A002082
:1094A000782F0020052F002049B152B1531E1A40D9
:1094B00007D1826001608380C260104670470E2031
:1094C00070470920704710B58468C2688388121BF2
:1094D000934208D3C26813400268D154C368013371
:1094E000C360002010BD0420FCE78268C3689A4274
:1094F0000AD08268838813400268D35C0B7083684B
:1095000001338360002070470520704742DF7047B9
:1095100043DF704738B5074C051E04F1080318BF38
:109520001C4623682BB11A6822605B68284698475E
:10953000F7E738BD102F002020B9054B01225A70E3
:10954000FFF7E8BF012802D1014A9070F8E77047A1
:10955000082F002020B9034B01225A70FFF7DABF11
:10956000704700BF082F002038B50E4C2378B3B9E0
:109570000D486360A3602361E36000F025FA0546AF
:1095800006F044FC08B900F02BFA01232370074BC6
:10959000D3F800340BB10123A370284638BD8525CC
:1095A000F5E700BF082F00203995020000000140B8
:1095B00037B50D4C00230DF107008DF80730FDF78E
:1095C00009FEE368013BE360E36833B9074BD3F876
:1095D000005415B900F016FAA5709DF80700FDF7C4
:1095E0001DFE03B030BD00BF082F00200000014069
:1095F000012813B50CD0032820D038B9134B012211
:10960000C3F88020BFF34F8FBFF36F8F02B010BD40
:109610000F4C00230DF107008DF80730FDF7DAFD40
:1096200023780BB9FFF7A0FFE3689DF8070001332B
:10963000E3600123A370FDF7F1FDE7E700F0D0F947
:1096400002B0BDE81040FFF7B3BF00BF00E100E08B
:10965000082F002037B51B4C6378054603F0FF0246
:109660009BB110B143680020984700230DF107001B
:109670008DF80730FDF7AEFD63689DF807000133F4
:109680006360FDF7CBFD03B030BD0DF107008DF831
:109690000720FDF79FFD25B1A268134653B92A6044
:1096A000A5606368002BE7D106F0B0FB30B1FFF78F
:1096B0002DFFE1E79D42F4D01B68EFE700F0B3F91E
:1096C000DAE700BF082F002073B50F4C00230DF11F
:1096D00007008DF80730FDF77DFD6368013B63608F
:1096E000666836B906F092FB054640B1FFF710FFF9
:1096F00066709DF80700FDF791FD02B070BD00F0A7
:109700009FF96570F5E700BF082F002031DF704733
:109710001FB500238DF807000DF10F008DF80F30F5
:10972000FDF758FD06F072FB50B909480DF107012D
:10973000FFF7B6FC0648FFF7A7FC08B100F0FAFEF9
:109740009DF80F00FDF76AFD05B05DF804FB00BF52
:10975000D404030007B520B103280DD003B05DF891
:1097600004FB104B1B78012BF8D100F0E3FE03B093
:109770005DF804EB00F0E6BE00230DF107008DF864
:109780000730FDF727FD07480378012B05D106496F
:10979000013000F08FFE00F0BBFE9DF80700FDF7E2
:1097A0003DFDDBE76C2F00201197020013B5124C32
:1097B0002378FBB9114A8DF80730002808BF1046FE
:1097C0000288A4F801200DF10700FDF703FD06F063
:1097D0001DFB30B90A49601C00F06CFE40B900F076
:1097E00097FE9DF8070001232370FDF717FD002069
:1097F00002B010BD8520FBE76C2F00200213030090
:109800001197020007B500230DF107008DF807300E
:10981000FDF7E0FC06F0FAFA18B900F08BFE00F054
:1098200091FE9DF80700FDF7F9FC0448FFF7ADFC39
:10983000034B00221A7003B05DF804FBD40403004C
:109840006C2F00202DE9F7430024DFF858900546DF
:109850000E46A0460DF107008DF80780FDF7BAFC13
:1098600006F0D4FA074638B9324629464846FFF78B
:109870006CFC044600F04CFE9DF80700FDF7CEFCA2
:1098800047B131462846FFF741FF42F207039842AD
:10989000044605D0022CDDD0204603B0BDE8F0839D
:1098A0000524F9E7D4040300F8B505460C4604B9CD
:1098B000F8BD402C264628BF4026F7B23946284638
:1098C000FFF7C0FF0028F9D1A41B3544EFE70000E3
:1098D0001FB503788DF800304368019383688DF8D5
:1098E0000830C368054A0393054B684653F8213096
:1098F00052F82110984705B05DF804FB702F002046
:10990000742F00201FB503788DF800304368019351
:1099100083688DF80830C368054A0393054B684691
:1099200053F8213052F82110984705B05DF804FB38
:10993000702F0020742F0020F0B5194B90F800C054
:1099400091F81DE043F82C20164B16460A6943F89F
:109950002C20154B03F80CE00C4607460FCC89B0C1
:109960006D460FC594E80F0085E80F00CDF810C0D4
:10997000BEF1000F09D0002E0C4A694608BF3246DE
:10998000381D01F005FA09B0F0BD002E084A6946FD
:1099900008BF324607F10C0000F0CCFFF3E700BF30
:1099A000742F0020702F0020782F0020D198020003
:1099B0000599020000F18040002382B00360036833
:1099C0000193019B02B07047044A137923B9012126
:1099D0001060918018467047852070477C2F0020CA
:1099E000074B1A68D20704D4C02283F8002301224F
:1099F0001A604FF080430122C3F81825704700BF5A
:109A000000E100E04FF0804208B50223C2F80833BD
:109A10004FF48270FFF7CEFF0123D360D2F81834E1
:109A2000DB03FBD408BD08B54FF48070FFF7C2FF1D
:109A30004FF080430122C3F804231A6008BD0000E0
:109A40004FF08042012108B54FF48070C2F808132E
:109A5000FFF7B0FF5160D2F80C3403F00113B3F1FB
:109A6000011FF8D0014B00225A7108BD7C2F002045
:109A70004FF0804110B5D1F8003163B14FF48070E0
:109A8000FFF798FF0D4B58790122C1F8082310B950
:109A90005A711B6898474FF08042D2F8043163B185
:109AA0004FF48270FFF786FF0223C2F80833034B9E
:109AB000BDE810401B680120184710BD7C2F002016
:109AC00000F1804000F5C040002382B003600368CD
:109AD0000193019B02B07047800000F1A040D0F8D4
:109AE000002722F44032C0F80027D0F8003743EABC
:109AF0000141C0F800177047054B4FF0FF320728AF
:109B000043F8202084BFC01880F84820704700BF69
:109B1000842F002010B51A4C94F858306BBB4FF0CE
:109B2000FF3222FA03F1C90748BFE11803F101032C
:109B300048BF81F83020202BF3D10021C8B2013179
:109B4000FFF7DAFF0C29F9D1042200210D4806F0B5
:109B500014FC0D4BC02283F8062340221A604FF4F8
:109B6000BE70FFF7ADFF094B4FF00042C3F804236E
:109B7000012384F85830002010BD0820FCE700BF06
:109B8000842F0020D82F002000E100E0006000407A
:109B9000034B93F85800003818BF0120704700BFEE
:109BA000842F0020F0B5394E331893F93030002B54
:109BB00069DA8D78C5F34005002D0BBF082300231B
:109BC0000C240824A34201D10420F0BD56F82370D0
:109BD000013743D137185CB246F8232087F830406C
:109BE00015B9F21882F848008A78550716D4D707B5
:109BF00036D5820002F1A042D2F8005725F00205C6
:109C0000C2F80057224FC50800F0070C012202FAE3
:109C10000CF217F805C042EA0C027A558A780D78E2
:109C200012F0020225D09B0003F1804303F5C043EC
:109C30000002D3F8102522F4473222F44072C3F810
:109C400010252D04D3F8102500F4F85005F4403504
:109C500028431043C3F810050020B6E70133B1E7ED
:109C60004D7800F5E0724FF0A047AD0047F8225064
:109C7000C8E7083C46FA84F494F8500040EA851599
:109C800084F85050E8E708209FE700BF842F0020A9
:109C9000D82F002038B5204C251895F93020072AF8
:109CA00018DD083A44FA82F494F850309B09032BEB
:109CB0000BD14FF0A043D3F81015C14001F00101C2
:109CC0000231BDE83840FFF707BF012B0CBF02216E
:109CD0000321F6E7D3B2072B1DD8930003F180438D
:109CE00003F5C043D3F8100540F00100C3F8100598
:109CF00002F1400040B2800080B2FFF7E1FE51B1B6
:109D000095F9303054F823302BB1012303FA02F2D5
:109D1000024BC3F8042338BD842F002000600040AC
:109D20004FF0A043D3F8103523FA00F000F0010003
:109D3000704700002DE9F74F00244E4D01944FF479
:109D40008072012102F1804303F5C04390B21B6889
:109D5000012B06D1D5F804330B4202D0FFF7B0FE39
:109D60000C430432B2F5907F4FEA4101EAD1414BF6
:109D7000D3F87C31012B0CD14FF4BE70FFF7A0FE5D
:109D80004FF0A04344F00044D3F820250192C3F8DB
:109D90002025E3B2D3B1384F00250126344210D03C
:109DA000AB0003F1804303F5C043D3F81005D3F8AB
:109DB000101557F8253023B1C1F30141C0F3042039
:109DC00098470135082D4FEA4606E7D1002C48DABE
:109DD000294D4FF0A048294E4FF00009012716F9F0
:109DE000013B5A1C31D0C3F3C20202A90A44DCB2BF
:109DF00012F8042C03F03F0A03F0070307FA03F3F9
:109E00001A4222D00AF5E073504658F82330C3F3C3
:109E1000014BBBF1020F0CBF03210221FFF75CFED7
:109E200007FA0AF3C8F8203505EB0A0393F9303036
:109E300055F823304BB1A109032904D0BBF1020F1F
:109E400012D1012901D15046984709F10109B9F110
:109E5000040FC4D1D8F820350193C8F82035002B61
:109E6000B9D103B0BDE8F08FBBF1030FEDD10229EA
:109E7000E8E700BF00600040842F0020D42F0020BE
:109E8000C02910B525D0B9B180290AD1437804780A
:109E900082781B0243EA044313430F4A0330C2F89B
:109EA0009835437802781B0243EA024382781343D1
:109EB000094A0330C2F894350368074A1BBAC2F84E
:109EC0009035D2F8A03523F0C0031943C2F8A0158D
:109ED00010BD4021E5E700BF00500040044B0D22BB
:109EE000C3F8042401229A60024AC3F8042370478D
:109EF0000050004082000800034BD3F83C0410F0EF
:109F0000030018BF0120704700500040F0B5B0F5C5
:109F1000A07FA5B072D1FFF7EFFF04463B48002CAD
:109F200070D183680133072B836067D904230093C2
:109F3000CDE90144364D039400F0A6FB354B6C721D
:109F40004FF48052C3F80825D3F80825D3F89005BC
:109F5000D3F8A01511F0C0011FFA82FC50D080295F
:109F6000D3F8944501BFD3F898358DF812301A0C08
:109F70008DF8102009BF1A0A04AA8DF811200DF1DE
:109F80001302230C1370230A53709470D31C020E17
:109F90001A70020C1F4C5A70020AD8709A70002373
:109FA000D4F8A475D4F80463C4F8FC3FD4F8FC3F9B
:109FB0000123C4F8FC3F04A8C4F808C5FFF760FFFC
:109FC000D4F8A43507F0600723F060033B43C4F8DE
:109FD000A4350323C4F80C35D4F8A03523F01F03AF
:109FE00043F00403C4F8A0354FF48F63C4F804634E
:109FF000C4F808336B680BB16846984725B0F0BDCC
:10A0000004ABC4E700238360F8E700BF082B0020FF
:10A01000E02F0020005000400288084B4168C3F840
:10A020001015C2F30802C3F81425054A126802F499
:10A030008C62C3F804230122DA61704700500040AB
:10A04000E02F00200268CAB10D4B4068C3F810052C
:10A05000C2F30800C3F81405D20040F6F8701040AF
:10A06000084AC3F81C05C3F80C15126802F0180260
:10A07000C3F804230122DA600020704709207047EA
:10A0800000500040E02F002000F1804000F5A0408B
:10A09000012303607047000029280D4B11D1D3F82C
:10A0A000202412F0010F4FF0010214BF9A625A628D
:10A0B0004FF48052C3F808254FF48F62C3F8082389
:10A0C000704700F1804000F5A04001220260EFE7F8
:10A0D0000050004008B50378012B0FD0022B1AD096
:10A0E00053B94268B2F5803F21D812494FF6FF704C
:10A0F000824294BFCA60C860002008BD017903296C
:10A1000015D80D4AD2F8A43523F0600343EA411371
:10A11000C2F8A435F0E7037A4068043BDBB2062BB3
:10A1200096BF064A4021D15CFFF7AAFEE4E707206C
:10A13000E3E700BFE02F00200050004016130300AB
:10A140000A2970B5024630D84FF49263CB40DB4306
:10A1500013F0010029D14FF080540429D4F8505451
:10A16000D4F85434D4F8584415704FEA15264FEA01
:10A1700015459570DDB25670D57001D1002070BDC7
:10A180001E0A16710A294FEA13464FEA13635671E5
:10A19000937105D1230AD471240C13725472EEE723
:10A1A000882DEBD19923D370E9E70920E7E7000078
:10A1B0002DE9FF41244D2C7A002C42D103C8234ABB
:10A1C00085E803000323C2F80C35D2F8A03523F04C
:10A1D0001F0343F00403C2F8A0351D4B20224FF0AB
:10A1E000C008C3F8802183F805831A60194F1A4B01
:10A1F0001A4A02A93846CDE9023400F0CFF90446E4
:10A20000D8B93B68D3F8102501264FF4C861D2B203
:10A21000334621FA02F200960146384600F05DFA14
:10A22000072102A8FFF78CFF4146044602A8FFF76A
:10A2300027FE4FF480532E72EB60204604B0BDE839
:10A24000F0810824F9E700BFE02F00200050004013
:10A2500000E100E0082B0020040000060D9F020032
:10A26000034AD2F89C3523F00103C2F89C357047AD
:10A2700000500040034AD2F89C3543F00103C2F875
:10A280009C357047005000407FB5734BD3F80421D4
:10A29000EAB1D3F80423910719D50022C3F80421A9
:10A2A000BFF34F8F6D4C637A03F0FF067BB96C4DA3
:10A2B000284600F0F5F9284600F0D8F9012363722A
:10A2C000022300936368AE600BB168469847624B07
:10A2D000D3F81821A2B3D3F80423520630D50021B5
:10A2E000C3F81811BFF34F8F402201910092D3F8A9
:10A2F00010250392D3F82425C2F30B02103AC2F3BF
:10A30000CC020292D3F828217AB1D3F8042356055F
:10A310000BD5D3F80C2402F00D020192C3F82811DA
:10A32000BFF34F8F0D22C3F80C244C4B5B680BB16D
:10A3300068469847484B0022C3F80C21BFF34F8F63
:10A34000454BD3F81021AAB1D3F80423D50611D573
:10A350000022C3F81021BFF34F8FCDE901220392F1
:10A36000102200921822C3F808233C4B5B680BB103
:10A3700068469847384BD3F84C215AB3D3F8042396
:10A38000140327D50022C3F84C21BFF34F8FC3F825
:10A390001821BFF34F8FC3F82821BFF34F8FC3F8A5
:10A3A0000C21BFF34F8FC3F81021BFF34F8F2B4900
:10A3B0008889C3F808050D20C3F80C04C3F8040409
:10A3C0004FF4002300934B680392CDE901220BB1B7
:10A3D00068469847204BD3F81C21F2B1D3F80423E8
:10A3E00010061AD50022D3F80414C3F81C21BFF3B9
:10A3F0004F8FCDE901220392C9074FF080020092EE
:10A4000007D50122C3F80424144B5B680BB16846DE
:10A410009847114B0D22C3F804240F4BD3F80C219D
:10A42000BAB1D3F80423120713D50022C3F80C21C4
:10A43000BFF34F8F094A52685AB108210091D3F8EF
:10A4400010150291D3F81C35C3F3C8030193684675
:10A45000904704B070BD00BF00500040E02F0020C6
:10A46000082B0020014B1B68184700BFF02F00206D
:10A470000E4B984237B50C4602D0002003B030BDD9
:10A4800000230DF107008DF80730FCF7A3FE084B01
:10A490001D7915B901221C601A719DF80700FCF79F
:10A4A000BDFE002DE9D01120E8E700BF00200040EC
:10A4B000F02F002010B5124C2378FBB9114B196016
:10A4C000037813F0010F104B1EBFD3F8042542F0A0
:10A4D0000102C3F80425D3F8002222F00102C3F8D8
:10A4E00000224378094A5B01DBB282F80D334FF456
:10A4F0000053136001232370002010BD8520FCE76A
:10A50000FC2F0020F82F002000D0004000E100E0E8
:10A51000074B0022C3F8002182B0D3F8002101923A
:10A52000019A0122C3F804231A6002B0704700BFE9
:10A5300000D00040024B0122C3F808235A60704744
:10A5400000D00040084B0122C3F808235A60074B93
:10A550004FF40052C3F88020BFF34F8FBFF36F8FCB
:10A56000034B00221A70704700D0004000E100E069
:10A57000FC2F0020074B0022C3F8002182B0D3F843
:10A5800000210192019AD3F80805034B1B68C0B261
:10A5900002B0184700D00040F82F0020F7B5067928
:10A5A0002F4D0C237343EF183C7A002C55D1EA5001
:10A5B0004B687B60477903682246A446D4B2A74221
:10A5C0003CD8CA7843F307345201002CC3F3073355
:10A5D000D2B23DDB234F07EB040C8CF800230122A1
:10A5E000640903F01F0302FA03F347F824300368F9
:10A5F0004A78D3F8040502F0030220F00300024376
:10A60000C3F80425D3F808058A7820F0030002F087
:10A6100003020243C3F80825D3F810050A7820F096
:10A620000F0102F00F020A43C3F810250C2303FBAD
:10A63000065501232B72002003B0F0BD940004F5F1
:10A64000A074013243F804C01C590194019CB5E781
:10A65000054C03F00F03E254C9E70820ECE700BF04
:10A660000030002000E100E014ED00E0036801226A
:10A670001A600279034B0C2101FB023302221A7289
:10A68000704700BF00300020036801221A61017981
:10A69000024B0C2000FB01331A727047003000207F
:10A6A00003680122DA60704737B54FF480340068E0
:10A6B0008C407BB18B0003F5A0730025C550C358B7
:10A6C0000193019BC0F8044301F5A87140F82120D3
:10A6D00003B030BDC0F80843F6E770B4046840F238
:10A6E0000116D4F800528E4025EA0605C4F800523F
:10A6F000D4F800522B43C4F800329DF80C3070BCE3
:10A70000FFF7D2BF2DE9F341104C114F114E002538
:10A710004FF48038236883B1D7F8043308FA05F280
:10A720001A420AD0002323602368019304F5A04055
:10A73000019B80B2D6E9003198470135062D04F11E
:10A740000404E7D102B0BDE8F08100BF40B1014090
:10A7500000B00140003000200023435082B0435835
:10A760000193019B02B070470A4610B54FF48E71F9
:10A77000FFF7F2FF136A9168C95C136A0133136231
:10A78000C0F81C1510BD024608B500684FF4927160
:10A79000FFF7E2FF10684FF48471FFF7DDFF1368E5
:10A7A00001221A6008BD8B690A4610B54FF4847106
:10A7B00023B9FFF7D1FFD0F8183510BDFFF7CCFF54
:10A7C000536AD168D0F81805C854536A01335362EC
:10A7D000F3E700001FB501238DF80030044BCDE9ED
:10A7E0000110D3E900126846904705B05DF804FBFC
:10A7F0000C30002030B54D4DD5F804339A0585B0A6
:10A8000051D5D5F82431002B4DD04FF49271284604
:10A81000FFF7A2FF4FF40173C5F80833444B93F8D8
:10A8200029200AB901226A60404902228DF80020DD
:10A83000D1F88024C1F8802403929A690292DA68E0
:10A8400001920022C3E906226846D3E9001290472C
:10A850003648D0F81C315BB1354A5169136A9942C8
:10A860004DD992F82830002B49D11146FFF77CFFD3
:10A870002E48D0F84431002B56D04FF4A271FFF788
:10A880006BFF2B4B93F829200AB1012202609A69D1
:10A89000002A49D0586AD96800229A6105B0BDE8FB
:10A8A0003040FFF797BFD5F804335B07D0D5D5F814
:10A8B0000831002BCCD01E4C1C482146FFF773FFFB
:10A8C000636AA2699A42C3D1E369E1684BB1A361AB
:10A8D0002369E3600023606AE3616362FFF77AFF44
:10A8E000B6E794F829300BB901236B600F4B4FF496
:10A8F0000172C3F808230023606AA361EEE70B48E6
:10A900004FF48E71FFF728FF5369002BB0D05169C7
:10A910000291002391688DF80030019153616846DF
:10A92000D2E900139847A3E705B030BD00200040EE
:10A930000C3000202DE9F843534D90F804802C236F
:10A9400003FB0853064693F82A300C469146002B29
:10A9500040F096804D490068FFF78AFD07460028C1
:10A9600040F0908022683068511C0BD04FF0A0411D
:10A9700001239340C1F8083502F5E0734FF0030C52
:10A9800041F823C061684B1C1FBF01F5E0734FF015
:10A99000A04C4FF0000E4CF823E0A369C0F824351A
:10A9A00094F814C0637DBCF1010F4CEA0303C0F8B6
:10A9B0006C35C0F81415C0F80C251DD1A268531CC5
:10A9C0001FBF02F5E0734FF0A0414FF0000C41F8BB
:10A9D00023C0E368591C0BD04FF0A04C01219940D3
:10A9E000CCF8081503F5E0714FF0030E4CF821E0A8
:10A9F000C0F80835C0F810252C2202FB08F2AB186D
:10AA0000C3F804902369AB50B9F1000F20D04FF484
:10AA10008E71247FFFF7A0FE4FF4A2713068FFF71C
:10AA20009BFE32681A4BC2F80433130B42F3073211
:10AA30006101002AC9B21EDB1648841884F800138D
:10AA40000121520903F01F0301FA03F340F82230F9
:10AA500033680422C3F800252C2303FB085300228B
:10AA6000C3E9062283F829205A61012283F82A20AB
:10AA70003846BDE8F883084A03F00F03D154E7E7EE
:10AA80000827F5E71127F3E70C300020F5A70200AF
:10AA90008000020000E100E014ED00E00279044BC8
:10AAA0002C2101FB02335869003818BF0120704780
:10AAB0000C3000202DE9F84F064690F804808946B6
:10AAC0009246FFF7EBFF044600283CD1204F2C258F
:10AAD00008FB057B4FF48E71CBF814A0CBF80890DF
:10AAE000CBF820008BF828003068FFF735FE30687F
:10AAF000012383605946FFF737FEDBF804305D46DB
:10AB00001BBB3068DBF814402B6A9C4211D83368B9
:10AB1000D3F81C21002AFBD00122DA6000202C236C
:10AB200003FB087700237B61BDE8F88F95F8283098
:10AB30003BB9D0F81C31002BF8D05946FFF714FE72
:10AB4000E2E70F20EBE71120EEE72046ECE700BF3D
:10AB50000C3000202DE9F0473A4D07792C2303FBF8
:10AB6000075306465C6824B103684FF40170C3F8CC
:10AB700008032C2303FB0753986950B1D8690028B8
:10AB800041D024B133684FF40172C3F80423112477
:10AB900036E09A61D9605862D8612C2303FB0753D1
:10ABA00093F829301BB910B93046FFF7ECFD4FF090
:10ABB0002C0808FB075A3068DAF80430002B37D12C
:10ABC0004FF4A271D046FFF7C7FD3068D0F824914A
:10ABD000D0F80831D0F84441CBB914B9B9F1000F1D
:10ABE000F3D02C2303FB07550023AB61B9F1000F11
:10ABF00024D12CBB95F8291033680122B1B11A6019
:10AC00002046BDE8F0871961DA610120C5E7B9F196
:10AC1000000FE6D1002CE4D14146FFF7C4FDDAF87D
:10AC20002430DAF818209A42CFD8DAE75A60E7E7FA
:10AC30004FF40173C0F804330024E1E70324DFE795
:10AC40000F24DDE70C3000200023435082B043582E
:10AC50000193019B02B070471FB501238DF80030AE
:10AC6000044BCDE90110D3E900126846904705B0C6
:10AC70005DF804FB383000207FB5434AD2F82461E8
:10AC8000002E60D010464FF49271FFF7DDFF0223D3
:10AC90008DF80030D2F88034C2F880340393D2F8B3
:10ACA0003C350293394BDA6801920022C3E906224F
:10ACB0006846D3E9001290473348D0F8443173B165
:10ACC0004FF4A271FFF7C0FF304B9A693AB10022EE
:10ACD000C3E90622D968D0F83C05FFF7BDFF2A4832
:10ACE000D0F82031ABB14FF49071FFF7ADFF0123E5
:10ACF000C360264B5A6962B1D0F84C15029100220C
:10AD000099688DF8002001915A616846D3E90012D4
:10AD100090471D48D0F858319BB14FF4AC71FFF704
:10AD200093FF1A4B5A6962B1D0F84C150291002278
:10AD300099688DF8002001915A616846D3E90012A4
:10AD4000904704B070BDD2F81031002BB4D04FF44E
:10AD500088711046FFF778FF0C4BD2F83C059969D3
:10AD60008842A9D1DC69D96864B1D2F8005225F0D3
:10AD70002005C2F800521A699C61DA60DE61FFF7B3
:10AD80006BFF99E79C61FAE7002000403830002013
:10AD90002DE9F8435A4E90F80480242303FB0863FE
:10ADA000044693F820300D469146002B40F0A380D6
:10ADB00054490068FFF75CFB0746002840F09D807F
:10ADC0002A682068511C0BD04FF0A041012393400A
:10ADD000C1F8083502F5E0734FF0030C41F823C0C9
:10ADE00069684B1C1FBF01F5E0734FF0A04C4FF09A
:10ADF000000E4CF823E0AB69C0F8243595F814C078
:10AE00006B7DBCF1010F4CEA0303C0F86C35C0F850
:10AE10000C25C0F814151DD1AA68531C1FBF02F5DC
:10AE2000E0734FF0A0414FF0000C41F823C0EB68F5
:10AE3000591C0BD04FF0A04C01219940CCF80815BB
:10AE400003F5E0714FF0030E4CF821E0C0F808352F
:10AE5000C0F81025242202FB08F2B318C3F80490AE
:10AE60002B69B350B9F1000F2FD04FF488712A7FAE
:10AE7000FFF7EAFE20684FF49071FFF7E5FE2068C7
:10AE80004FF49271FFF7E0FE20684FF4A271FFF7D4
:10AE9000DBFE4FF4AC712068FFF7D6FE23681A4939
:10AEA000C3F80413190B43F307335201002BD2B23A
:10AEB0001CDB1648C51885F8002301225B0901F048
:10AEC0001F0102FA01F140F8231023680822C3F899
:10AED0000025242303FB08660023C6E906337361BB
:10AEE000012386F820303846BDE8F883084B01F08E
:10AEF0000F015A54E9E70827F5E71127F3E700BFE8
:10AF00003830002079AC02001003420000E100E07C
:10AF100014ED00E00279044B242101FB023358694F
:10AF2000003818BF012070473830002001F060431E
:10AF3000B3F1005F2DE9F0470646884692463BD1C3
:10AF400090F80490FFF7E6FF0446002836D11D4F25
:10AF50003068242505FB09754FF49071C5F814A0DD
:10AF6000C5F80880FFF770FE4FF4AC713068FFF74A
:10AF70006BFE33686A69A968C3F84415C3F84825AD
:10AF800001229A606A68DAB9D3F82021D3F858010F
:10AF90001AB90028F8D00F2007E00028FBD10122C1
:10AFA000DA60D3F85821002AFBD0242303FB097769
:10AFB00000237B61BDE8F0871020FBE71120F9E753
:10AFC0002046F7E738300020F8B501F06043B3F1D0
:10AFD000005F04460F465ED10379304D242101FB0A
:10AFE0000351496821B100684FF40476C0F8086342
:10AFF000242000FB03539E6956B1D869002839D03C
:10B0000021B123684FF40472C3F80423112030E007
:10B010009A61DF60DE6120684FF48871FFF714FEEB
:10B0200020684FF4A271FFF70FFE2368C3F8347550
:10B03000C3F8382516BB01221A602479242202FBAA
:10B04000045252680ABBD3F81011D3F84421D3F844
:10B050002401114302D10028F5D00A46242303FB22
:10B0600004550023984218BF03209A42AB6118BFD1
:10B070000F20F8BD1F61DA610126CCE7D3F800226A
:10B0800042F02002C3F80022D7E74FF40472C3F85D
:10B0900004230020EDE71020EBE700BF383000204C
:10B0A000A8DF7047ADDF7047AEDF704762DF7047E3
:10B0B00070B505468AB00C46002962D0002860D0E1
:10B0C0000388502B37D0572B72D0102B59D1818841
:10B0D0006069002601AA019603F0C2FC08223146ED
:10B0E0000DEB020005F049F902232189A888CDF86B
:10B0F0000CD002AA0293FFF7D5FF002841D1A36923
:10B10000002B3ED0039803F037FA002839D0019B7A
:10B110000BB101221A701822002104A805F02DF9A4
:10B1200002238DF81030AB88ADF81830019B0594E0
:10B130000793A36923E08188606902AA03F090FC69
:10B140001822002104A805F018F9AB882189ADF870
:10B150001830EB88029A05949942079218D12E8AEA
:10B16000022E15D16AB105F1120003F005FA029B17
:10B1700048B101221A708DF81060A3690BB104A8C0
:10B1800098470AB070BD187003238DF81030F4E7AB
:10B19000A2899A42F5D1A369002BF2D000228DF842
:10B1A000102005F1120208922A8AADF82420E6E761
:10B1B0008188606902AA03F053FC01460028E0D1AF
:10B1C000029B1B78002BDCD0A369002BD9D018225E
:10B1D00004A805F0D2F801238DF81030AB88ADF843
:10B1E00018300594029BA3E7F0B53A4B8FB002AD3F
:10B1F00004460A4603F1100C2F46186859682E467B
:10B2000003C6083363453546F7D1002C5FD0002ACA
:10B210005DD01368A36121463846FFF747FF002839
:10B2200053D12246012512F8023B8DF8063001A9C0
:10B230002846ADF80450FFF733FF002845D10146FA
:10B24000202206A805F099F822460223ADF818300E
:10B2500012F80C3B8DF81A30BDF824301E4E608871
:10B26000079623F44F6323F00F0343F440632B430B
:10B2700006A9ADF824308DF829508DF82A5003F036
:10B280007FF910BB0146202206A805F076F8224679
:10B290000323ADF8183012F8043B8DF81A30BDF8CE
:10B2A00024306088079623F4875323F01F0343F468
:10B2B00080532B43ADF8243006A940F201138DF8DA
:10B2C0002950ADF82A3003F05BF90FB0F0BD0E2025
:10B2D000FBE700BF39130300F4000100F0B50F468F
:10B2E00087B016461C46054618B3406901AA1946A0
:10B2F00003F0B6FBD8B94FF6FF739C421BD0019BFD
:10B30000CBB11B78CBB13388F42B18D8014610226F
:10B3100002A805F032F8AB88ADF8083002A9012385
:10B320002046CDE904678DF80A30FFF7BDFE07B06F
:10B33000F0BD0E20FBE70520F9E70820F7E707201E
:10B34000F5E70000054A4FF0A043105CD3F8043540
:10B3500023FA00F0C04300F0010070474D130300D2
:10B36000044B1A5C012393404FF0A042C2F80C3505
:10B37000704700BF4D130300044B1A5C0123934038
:10B380004FF0A042C2F80835704700BF4D130300CC
:10B3900008B50020FFF7F0FF0120FFF7EDFF0220C6
:10B3A000FFF7EAFFBDE808400320FFF7E5BF08B557
:10B3B0000020FFF7D5FF0120FFF7D2FF0220FFF7A3
:10B3C000CFFFBDE808400320FFF7CABF074A4FF090
:10B3D000A041105CD1F804350122824022EA03002A
:10B3E0001340C1F80805C1F80C3570474D13030030
:10B3F000054A4FF0A043105CD3F8103523FA00F053
:10B40000C04300F001007047491303000D2809D024
:10B410000E2809D00F2809D010280CBF03204FF0A8
:10B42000FF307047002070470120704702207047AE
:10B43000014B185C704700BF49130300C20708B5F1
:10B4400001460CD54FF0A0430322C3F84427C3F8AC
:10B450004827C3F84C27C3F85027FFF799FF8B07FD
:10B460000AD54FF0A0430C22C3F83427C3F838277D
:10B47000C3F83C27C3F8402708BD704707B5044B05
:10B480000093044A402300F032F803B05DF804FB57
:10B4900099B402005D3000202DE9F8438846144637
:10B4A000B2B10F4B0F4E0325002743F0010922468E
:10B4B00008EB0701002002F03FF80744241A48B9BE
:10B4C00033782BB14FF47A40C847013D02D1357033
:10B4D000BDE8F88301233370002CE8D1F8E700BF02
:10B4E000601303005C300020704702F055B8F0B5DF
:10B4F00095B01D46164608460C46FDF721FD1A9BE1
:10B500000D93CDE9086500252B46082205A92046A4
:10B510000A958DF82C500C95FDF72EFD079B029394
:10B52000069B03939DF814308DF8115003F003022D
:10B53000012A1DD1BDF81420059DC3F3C203C2F337
:10B5400083168DF81030B20008230EA92046FDF7AF
:10B5500013FDC5F3952508AB0093324602AB0EA947
:10B56000284600F03BFB2046FDF7EEFC15B0F0BD91
:10B57000022AF8D1BDF81650C3F3C203C5F38915EA
:10B580008DF810300827082D2E4628BF08263B4688
:10B5900032460EA92046FDF7EFFCAD1B08AB02AA10
:10B5A00031460EA8374400F07DFB002DEBD1DAE7E1
:10B5B00008B5FFF79AFF0448042100F079FA034B1D
:10B5C00001225A7108BD00BFFC050300142B0020A6
:10B5D000037813F0040216D003F00303012B03D009
:10B5E000022B09D0012070470A6800880232C0F39C
:10B5F000831002440A60F5E70B684288023303EBCC
:10B6000092130B60EEE71046704700002DE9F04FF3
:10B61000DFF81CA187B00F4600230446861C0DF1FD
:10B62000070015468DF80730FBF7D4FDDAF8042043
:10B630003A60DAF8083003F580739B1A0AF21C4767
:10B640000AF583690AF21448B3421AD30020002D88
:10B6500069D004F00F039B0143F0050363F30F006F
:10B66000DAF80430DAB2033233444AF822009DF8A3
:10B670000700CAF80430FBF7D1FD012007B0BDE890
:10B68000F08F01213846FCF7C7FE4846FCF7DFFE85
:10B690004046FCF7DCFEDAF808000290C0B2033046
:10B6A0000AEB800002A9FFF793FF029B30BBDAB2DE
:10B6B0000AEB8202D16803919A1C0133DBB20AEBD8
:10B6C00083030292D3F80CB001F00303012B22D0C4
:10B6D000022B15D083464046FCF7BCFE10B1029BFE
:10B6E000CAF8083059463846FCF796FEDAF80830B2
:10B6F000DAF8042003F580739B1AA5E7D8B2CEE7E9
:10B70000BDF80E30C3F3891303334FEA1B4B02EB32
:10B7100093030293DFE7BDF80C30C3F383134FEAC2
:10B720001B4B1344F5E7A40544F0060098E700BF5F
:10B7300070310020064B074810B500221A70FDF743
:10B74000B8FB044610B90448FDF733FD204610BD90
:10B7500070310020180503009C13030030B50A4C1B
:10B7600071B10A4A0A49121BD20800239A4201D138
:10B77000002030BD31F82350854202D00133F5E777
:10B78000034654F83300F4E734050300FC050300D6
:10B79000EC2A0020094B013903EBC000032909D82A
:10B7A000DFE801F00A0204060420704700797047C0
:10B7B000407970470020704702207047340503002D
:10B7C000034BD3E90130C31A58425841704700BFB8
:10B7D000703100202DE9F04186B0FFF7F1FF0546FA
:10B7E000002840F0ED80774CC4F81804BFF34F8F69
:10B7F000A3680293DBB2033304EB830002A9FFF7D3
:10B80000E7FE029B18B1D4F81824002A5AD0DAB205
:10B81000991C013304EB8202DBB204EB8303D26890
:10B82000DB68049302F00303022B0392029154D1CC
:10B83000BDF80E306448C3F38917502F3E4628BF29
:10B84000502606F1080166F38F13C1F30901ADF824
:10B850000E30FDF746FB0546002800F09C80FDF702
:10B860006FFB0023082203A92846FDF77BFB029902
:10B87000CB43DBB20133C9B20331B6EB830F4FEADE
:10B88000830204EB810125D95FFA82F80823A6EB35
:10B8900008062846FDF766FBF6B208F108034B4997
:10B8A00003F0FC0332462846FDF75CFB029B03379E
:10B8B00003EB97070297D4F81834002B43D1D4F840
:10B8C000106453E062689A4294D8A260284606B099
:10B8D000BDE8F08108233246E5E7012B5BD1BDF8D6
:10B8E0000C303948C3F38311062928BF062161F3C0
:10B8F0008913023101F00F018900ADF80C30FDF71A
:10B90000F0FA0546002846D0FDF71AFB002308226E
:10B9100003A92846FDF726FB0026BDF80C20C2F33C
:10B920008312B300964203F10803C4D202994A1C61
:10B93000C9B20331029204EB810104222846FDF7CB
:10B9400011FB0136E9E72846FDF7FEFAFFF738FF5D
:10B9500080F00100C5B2B9E7F3685B7923B13368C1
:10B9600029461B6830469847F3681E68002EF3D1BD
:10B970002846FDF7E9FA0DF107008DF80760FBF79F
:10B9800029FCD4F818340BB9029BA3609DF807007A
:10B99000FBF744FCDAE7D4F8104454B90C4B0D48DB
:10B9A0000D49C01AC008000440F0020000F05CF825
:10B9B000CCE7236820469B689847E3681C68ECE75F
:10B9C000002583E770310020180503007C3100203A
:10B9D0003405030074050300841303002DE9F347C5
:10B9E00004460E46924601A9012218469946FFF7E1
:10B9F0000DFE1B4F10B3019D4FF00008AA1CC84557
:10BA000008EB020123D117480021FCF7BEFC80F3AC
:10BA10001000000440EA1440E4006B1C04F03804F9
:10BA2000DBB2EDB244F0010407EB8303033544EAD3
:10BA3000881444EA8624D86047F825403B781BB137
:10BA4000FFF7C8FE0028FBD102B0BDE8F087C9B2FD
:10BA500007EB81015AF82830CB6008F10108CEE7E6
:10BA6000703100208C35002000231A46FFF7B6BF46
:10BA700007B50123019201AAFFF7B0FF03B05DF8FB
:10BA800004FB07B5CDE9002302236A46FFF7A6FFB2
:10BA900003B05DF804FB1FB5CDE90123069B0393BA
:10BAA00001AA0323FFF79AFF05B05DF804FB00002D
:10BAB00030B50F4CD4F8102403460020114631B99C
:10BAC000D96808714AB9C4F810340A6030BDC96831
:10BAD0000D79854206D00968F1E7D26814680C60D8
